S0190000375345475F736D617274446973706C61792E7372656399
S113000019C064C379C331C030C02FC02EC04DC3E2
S11300102CC02BC02AC029C028C027C026C025C098
S1130020E9C223C0AAC321C020C02BC01EC01DC06A
S1130030A3C01BC011241FBECFEFD4E0DEBFCDBFD1
S113004011E0A0E0B1E0E4E3FBE002C005900D9212
S1130050A632B107D9F721E0A6E2B1E001C01D92B2
S1130060A534B207E1F728D163C5CACF82E48093EF
S11300707C00EAE7F0E08EE88083808180648083FE
S113008008951F920F920FB60F9211242F933F934E
S11300908F939F93AF93BF93EF93FF932091780037
S11300A0309179008091280190912901A0912A0131
S11300B0B0912B01820F931FA11DB11D80932801C4
S11300C090932901A0932A01B0932B0180912601DA
S11300D09091270101969093270180932601EAE7E6
S11300E0F0E0808180648083FF91EF91BF91AF91B4
S11300F09F918F913F912F910F900FBE0F901F9062
S11301001895609128017091290180912A0190919C
S11301102B01209126013091270110922801109281
S1130120290110922A0110922B011092270110929A
S1130130260140E050E0CED4CA01B901DAD320E070
S113014030E84CE155E43BD420E030E040E85AE3A9
S113015036D4A3D3CB010895389888B1836088B985
S113016086B1882311F084E101C085E18093BA004F
S113017085E48093BC0008951F920F920FB60F92EE
S113018011242F933F938F939F93AF93BF93EF9338
S1130190FF938091B900887F803861F0803A09F438
S11301A05BC0803609F076C0ECEBF0E08081806CB7
S11301B0808375C08091BB008A3058F4E09132018D
S11301C091E09E0F90933201F0E0E25DFE4F808358
S11301D03DC08D3249F018F4803291F037C08E3230
S11301E039F18F35C9F032C0E091320181E08E0FD0
S11301F080933201F0E0E25DFE4F83E1808326C00C
S1130200E091320181E08E0F80933201F0E0E25DF3
S1130210FE4F82E180831AC0E091320181E08E0FAB
S113022080933201F0E0E25DFE4F84E180830EC0F2
S11302303091320120912D0180E190E002C095952A
S113024087953A95E2F7822B80932D01ECEBF0E051
S11302508081806C808323C0ECEBF0E08081806C33
S113026080831092320180912D0180932C01109291
S11302702D0180E090E032E1FC01E25DFE4F20813F
S1130280DC01A050BF4F2C9330830196843091053C
S113029099F705C0ECEBF0E0808180688083FF91E2
S11302A0EF91BF91AF919F918F913F912F910F90BB
S11302B00FBE0F901F9018958FEF84B980EF8AB905
S11302C0D5DE3ED249DF8CE08BB98AE080936900A9
S11302D083E08DBB85BD81E080936E0087E08093D1
S11302E0B10083EC8093B30082E080937000789433
S11302F06894AA24A2F80F2EF3E0CF2EF02DD12C6F
S1130300C9E3D1E00F2EFAE09F2EF02D0F2EFBE073
S11303106F2EF02D0F2EFCE08F2EF02D0F2EFEE011
S11303204F2EF02D6894BB24B3F80F2EFDE03F2E22
S1130330F02D0F2EF5E0EF2EF1E0FF2EF02D689456
S1130340772471F80F2EF2E15F2EF02D00E011E01A
S1130350D8DE20913601213009F45BC038F0223018
S113036009F4AAC0233009F418C13AC12091040148
S1130370222389F010923701109204019882698235
S11303808A823B822FEF3BE44DE1215030404040D4
S1130390E1F700C00000B0923701BC0180E090E0BA
S11303A0A8D226E130EA4FE150E409D376D2FB012A
S11303B04C2D5D2D9F01ADECBCECAED3969587958D
S11303C096958795969587959C01220F331F880FE4
S11303D0991F880F991F880F991F820F931F9F01E0
S11303E0281B390BDA01A75CBE4F2C939F01ADEC9F
S11303F0BCEC92D3FC01F695E795F695E795F69556
S1130400E79541505109B0F6809135018111FCCF37
S1130410E7C020910401222389F010923701109241
S11304200401988269828A824B824FEFEBE4FDE1FA
S11304304150E040F040E1F700C00000A0923701D5
S1130440BC0180E090E055D22FEE39EF4FE95FE335
S1130450B6D223D2FB014C2D5D2D9F01ADECBCEC3B
S11304605BD39695879596958795969587959C01E8
S1130470220F331F880F991F880F991F880F991F08
S1130480820F931F9F01281B390BDA01A75CBE4F13
S11304902C939F01ADECBCEC3FD3FC01F695E795A2
S11304A0F695E795F695E79541505109B0F6809198
S11304B035018111FCCF94C0809104018823A1F0FF
S11304C010923701109204018FE08883998281E1B0
S11304D08A8380E18B834FEF8BE49DE14150804020
S11304E09040E1F700C0000080913401882309F4B2
S11304F046C010923401709237012FD18230D1F06E
S113050028F4882349F0813071F030C0843001F13F
S1130510B8F0853021F12AC05882598289E08A8353
S113052086E08B8323C0588281E0898389E08A83B3
S11305307B821CC0588283E08983BA82AB8216C056
S1130540588285E0898387E08A8386E08B830EC0A6
S113055081E08883898385E08A837B8207C081E088
S1130560888319821A821B8210923701EFEFFBE411
S11305702DE1E150F0402040E1F700C000008091FF
S11305803D0180933701F7018081888381818983CC
S113059082818A8383818B8323C080910401882391
S11305A091F01092370110920401588285E18983F9
S11305B07A828B82FFEF2BE43DE1F1502040304002
S11305C0E1F700C0000080912C0180933701F8010D
S11305D0808188838181898382818A8383818B83DB
S11305E0FFEF21EE34E0F15020403040E1F700C04D
S11305F00000AECE1F920F920FB60F9211248F936C
S1130600EF93FF93809138018F5F8093380180913D
S11306103801843010F0109238018BB1806F8BB99F
S113062080913801813099F028F08230E9F08330EC
S113063041F133C0E0913901F0E0E75FFE4F808182
S113064085B98091370183FD289A5F9826C0E0918F
S11306503A01F0E0E75FFE4F808185B98091370170
S113066082FD289A5D9819C0E0913B01F0E0E75FB4
S1130670FE4F808185B98091370181FD289A5E986B
S11306800CC0E0913C01F0E0E75FFE4F808185B94A
S11306908091370180FD289A5C98FF91EF918F91AA
S11306A00F900FBE0F901F9018951F920F920FB6C8
S11306B00F9211248F93809133018F5F80933301C4
S11306C08F910F900FBE0F901F9018951F920F924D
S11306D00FB60F9211248F939F938091350191E06F
S11306E0892780933501909334019F918F910F90C6
S11306F00FBE0F901F9018951F920F920FB60F9276
S113070011248F9381E080930401809136018F5FDF
S11307108093360180913601843010F010923601B6
S11307208F910F900FBE0F901F9018951092C500D7
S1130730E82FF0E0E15EFE4F80818093C4000895CD
S113074082E08093C00086E08093C20080914401DF
S1130750EDDF80E98093C1000895809144018F5FAB
S1130760863018F48093440102C0109244018091B1
S11307704401DCDF8091440108951F920F920FB66B
S11307800F9211242F933F938F939F93AF93BF9313
S1130790EF93FF938091C60080538A3058F4E09120
S11307A0430191E09E0F90934301F0E0E15CFE4F22
S11307B080834AC08D3F61F4E091430181E08E0F54
S11307C080934301F0E0E15CFE4F83E180833CC011
S11307D0803F61F4E091430181E08E0F80934301F7
S11307E0F0E0E15CFE4F82E180832EC08F3261F441
S11307F0E091430181E08E0F80934301F0E0E15CDE
S1130800FE4F84E1808320C08E3F79F43091430110
S113081020913E0180E190E002C0959587953A953C
S1130820E2F7822B80933E010FC091E08D3D09F0E9
S113083090E0911106C091E08A3D09F090E099237F
S113084019F084E080934301809143018430C0F027
S11308501092430180913E0180933D0110923E012C
S113086080E090E032E1FC01E15CFE4F2081DC019C
S1130870AB5FBE4F2C93308301968430910599F77A
S1130880FF91EF91BF91AF919F918F913F912F91E4
S11308900F900FBE0F901F90189570D088F09F573F
S11308A090F0B92F9927B751A0F0D1F0660F771FB8
S11308B0881F991F1AF0BA95C9F712C0B13081F098
S11308C077D0B1E0089574C0672F782F8827B85F78
S11308D039F0B93FCCF3869577956795B395D9F7F9
S11308E03EF490958095709561957F4F8F4F9F4F03
S11308F00895E89409C097FB3EF49095809570950F
S113090061957F4F8F4F9F4F9923A9F0F92F96E957
S1130910BB279395F695879577956795B795F111CC
S1130920F8CFFAF4BB0F11F460FF1BC06F5F7F4F69
S11309308F4F9F4F16C0882311F096E911C077237B
S113094021F09EE8872F762F05C0662371F096E884
S1130950862F70E060E02AF09A95660F771F881F53
S1130960DAF7880F9695879597F9089557FD90586B
S1130970440F551F59F05F3F71F04795880F97FB5F
S1130980991F61F09F3F79F0879508951216130619
S11309901406551FF2CF4695F1DF08C01616170648
S11309A01806991FF1CF869571056105089408957D
S11309B0E894BB2766277727CB0197F908950BD0D6
S11309C078C069D028F06ED018F0952309F05AC089
S11309D05FC01124EECFCADFA0F3959FD1F3950F2A
S11309E050E0551F629FF001729FBB27F00DB11DAF
S11309F0639FAA27F00DB11DAA1F649F6627B00D3F
S1130A00A11D661F829F2227B00DA11D621F739F27
S1130A10B00DA11D621F839FA00D611D221F749F35
S1130A203327A00D611D231F849F600D211D822F7C
S1130A30762F6A2F11249F5750408AF0E1F08823C3
S1130A404AF0EE0FFF1FBB1F661F771F881F9150D0
S1130A505040A9F79E3F510570F014C0AACF5F3FE4
S1130A60ECF3983EDCF3869577956795B795F79503
S1130A70E7959F5FC1F7FE2B880F911D969587958B
S1130A8097F9089597F99F6780E870E060E008950A
S1130A909FEF80EC089500240A9416161706180692
S1130AA00906089500240A9412161306140605066E
S1130AB00895092E0394000C11F4882352F0BB0FFF
S1130AC040F4BF2B11F460FF04C06F5F7F4F8F4F62
S1130AD09F4F0895A1E21A2EAA1BBB1BFD010DC056
S1130AE0AA1FBB1FEE1FFF1FA217B307E407F507DA
S1130AF020F0A21BB30BE40BF50B661F771F881FB6
S1130B00991F1A9469F760957095809590959B014B
S1130B10AC01BD01CF010895A29FB001B39FC001F4
S1130B20A39F01D0B29F700D811D1124911D0895C2
S1070B30F894FFCF63
S1130B341414141401141414147E60AEEAF0DADEEE
S1130B4468FEFAFCE68616F4769684008002406712
S1090B5433191008000033
S9030000FC
